{
  "address": "0xe7f1725E7734CE288F8367e1Bb143E90bb3F0512",
  "abi": [
    {
      "inputs": [
        {
          "internalType": "address",
          "name": "priceFeed",
          "type": "address"
        }
      ],
      "stateMutability": "nonpayable",
      "type": "constructor"
    },
    {
      "inputs": [],
      "name": "FundMe__NotOwner",
      "type": "error"
    },
    {
      "inputs": [],
      "name": "MINIMUM_USD",
      "outputs": [
        {
          "internalType": "uint256",
          "name": "",
          "type": "uint256"
        }
      ],
      "stateMutability": "view",
      "type": "function"
    },
    {
      "inputs": [],
      "name": "cheaperWithdraw",
      "outputs": [],
      "stateMutability": "nonpayable",
      "type": "function"
    },
    {
      "inputs": [],
      "name": "fund",
      "outputs": [],
      "stateMutability": "payable",
      "type": "function"
    },
    {
      "inputs": [
        {
          "internalType": "address",
          "name": "fundingAddress",
          "type": "address"
        }
      ],
      "name": "getAddressToAmountFunded",
      "outputs": [
        {
          "internalType": "uint256",
          "name": "",
          "type": "uint256"
        }
      ],
      "stateMutability": "view",
      "type": "function"
    },
    {
      "inputs": [
        {
          "internalType": "uint256",
          "name": "index",
          "type": "uint256"
        }
      ],
      "name": "getFunder",
      "outputs": [
        {
          "internalType": "address",
          "name": "",
          "type": "address"
        }
      ],
      "stateMutability": "view",
      "type": "function"
    },
    {
      "inputs": [],
      "name": "getOwner",
      "outputs": [
        {
          "internalType": "address",
          "name": "",
          "type": "address"
        }
      ],
      "stateMutability": "view",
      "type": "function"
    },
    {
      "inputs": [],
      "name": "getPriceFeed",
      "outputs": [
        {
          "internalType": "contract AggregatorV3Interface",
          "name": "",
          "type": "address"
        }
      ],
      "stateMutability": "view",
      "type": "function"
    },
    {
      "inputs": [],
      "name": "getVersion",
      "outputs": [
        {
          "internalType": "uint256",
          "name": "",
          "type": "uint256"
        }
      ],
      "stateMutability": "view",
      "type": "function"
    },
    {
      "inputs": [],
      "name": "withdraw",
      "outputs": [],
      "stateMutability": "nonpayable",
      "type": "function"
    }
  ],
  "transactionHash": "0x60043df1f9d68edd1a6a7c16c8a65e323bc3ef90ed2a7c3d86d9e89f88a357d0",
  "args": [
    "0x5FbDB2315678afecb367f032d93F642f64180aa3"
  ],
  "numDeployments": 1,
  "solcInputHash": "1c331321038e3f5239e68fac39c21483",
  "bytecode": "0x60a06040523480156200001157600080fd5b50604051620012763803806200127683398181016040528101906200003791906200011d565b80600260006101000a81548173ffffffffffffffffffffffffffffffffffffffff021916908373ffffffffffffffffffffffffffffffffffffffff1602179055503373ffffffffffffffffffffffffffffffffffffffff1660808173ffffffffffffffffffffffffffffffffffffffff1681525050506200014f565b600080fd5b600073ffffffffffffffffffffffffffffffffffffffff82169050919050565b6000620000e582620000b8565b9050919050565b620000f781620000d8565b81146200010357600080fd5b50565b6000815190506200011781620000ec565b92915050565b600060208284031215620001365762000135620000b3565b5b6000620001468482850162000106565b91505092915050565b6080516110ef62000187600039600081816102cc0152818161045f0152818161050501528181610690015261088601526110ef6000f3fe6080604052600436106100865760003560e01c8063893d20e811610059578063893d20e8146101355780639e87a5cd14610160578063b60d42881461018b578063be2693f014610195578063d7b4750c146101ac57610086565b80630343fb251461008b5780630d8e6e2c146100c85780633ccfd60b146100f35780636b69a5921461010a575b600080fd5b34801561009757600080fd5b506100b260048036038101906100ad9190610b40565b6101e9565b6040516100bf9190610b86565b60405180910390f35b3480156100d457600080fd5b506100dd610232565b6040516100ea9190610b86565b60405180910390f35b3480156100ff57600080fd5b506101086102ca565b005b34801561011657600080fd5b5061011f6104f4565b60405161012c9190610b86565b60405180910390f35b34801561014157600080fd5b5061014a610501565b6040516101579190610bb0565b60405180910390f35b34801561016c57600080fd5b50610175610529565b6040516101829190610c2a565b60405180910390f35b610193610553565b005b3480156101a157600080fd5b506101aa61068e565b005b3480156101b857600080fd5b506101d360048036038101906101ce9190610c71565b61091c565b6040516101e09190610bb0565b60405180910390f35b6000600160008373ffffffffffffffffffffffffffffffffffffffff1673ffffffffffffffffffffffffffffffffffffffff168152602001908152602001600020549050919050565b6000600260009054906101000a900473ffffffffffffffffffffffffffffffffffffffff1673ffffffffffffffffffffffffffffffffffffffff166354fd4d506040518163ffffffff1660e01b8152600401602060405180830381865afa1580156102a1573d6000803e3d6000fd5b505050506040513d601f19601f820116820180604052508101906102c59190610cb3565b905090565b7f000000000000000000000000000000000000000000000000000000000000000073ffffffffffffffffffffffffffffffffffffffff163373ffffffffffffffffffffffffffffffffffffffff161461034f576040517f579610db00000000000000000000000000000000000000000000000000000000815260040160405180910390fd5b60005b6000805490508110156103fa57600080828154811061037457610373610ce0565b5b9060005260206000200160009054906101000a900473ffffffffffffffffffffffffffffffffffffffff1690506000600160008373ffffffffffffffffffffffffffffffffffffffff1673ffffffffffffffffffffffffffffffffffffffff168152602001908152602001600020819055505080806103f290610d3e565b915050610352565b50600067ffffffffffffffff81111561041657610415610d86565b5b6040519080825280602002602001820160405280156104445781602001602082028036833780820191505090505b506000908051906020019061045a929190610a36565b5060007f000000000000000000000000000000000000000000000000000000000000000073ffffffffffffffffffffffffffffffffffffffff16476040516104a190610de6565b60006040518083038185875af1925050503d80600081146104de576040519150601f19603f3d011682016040523d82523d6000602084013e6104e3565b606091505b50509050806104f157600080fd5b50565b6802b5e3af16b188000081565b60007f0000000000000000000000000000000000000000000000000000000000000000905090565b6000600260009054906101000a900473ffffffffffffffffffffffffffffffffffffffff16905090565b6802b5e3af16b1880000610592600260009054906101000a900473ffffffffffffffffffffffffffffffffffffffff163461096390919063ffffffff16565b10156105d3576040517f08c379a00000000000000000000000000000000000000000000000000000000081526004016105ca90610e58565b60405180910390fd5b34600160003373ffffffffffffffffffffffffffffffffffffffff1673ffffffffffffffffffffffffffffffffffffffff16815260200190815260200160002060008282546106229190610e78565b925050819055506000339080600181540180825580915050600190039060005260206000200160009091909190916101000a81548173ffffffffffffffffffffffffffffffffffffffff021916908373ffffffffffffffffffffffffffffffffffffffff160217905550565b7f000000000000000000000000000000000000000000000000000000000000000073ffffffffffffffffffffffffffffffffffffffff163373ffffffffffffffffffffffffffffffffffffffff1614610713576040517f579610db00000000000000000000000000000000000000000000000000000000815260040160405180910390fd5b60008080548060200260200160405190810160405280929190818152602001828054801561079657602002820191906000526020600020905b8160009054906101000a900473ffffffffffffffffffffffffffffffffffffffff1673ffffffffffffffffffffffffffffffffffffffff168152602001906001019080831161074c575b5050505050905060005b81518110156108215760008282815181106107be576107bd610ce0565b5b602002602001015190506000600160008373ffffffffffffffffffffffffffffffffffffffff1673ffffffffffffffffffffffffffffffffffffffff1681526020019081526020016000208190555050808061081990610d3e565b9150506107a0565b50600067ffffffffffffffff81111561083d5761083c610d86565b5b60405190808252806020026020018201604052801561086b5781602001602082028036833780820191505090505b5060009080519060200190610881929190610a36565b5060007f000000000000000000000000000000000000000000000000000000000000000073ffffffffffffffffffffffffffffffffffffffff16476040516108c890610de6565b60006040518083038185875af1925050503d8060008114610905576040519150601f19603f3d011682016040523d82523d6000602084013e61090a565b606091505b505090508061091857600080fd5b5050565b600080828154811061093157610930610ce0565b5b9060005260206000200160009054906101000a900473ffffffffffffffffffffffffffffffffffffffff169050919050565b60008061096f8361099f565b90506000670de0b6b3a764000085836109889190610eac565b6109929190610f1d565b9050809250505092915050565b60008082905060008173ffffffffffffffffffffffffffffffffffffffff1663feaf968c6040518163ffffffff1660e01b815260040160a060405180830381865afa1580156109f2573d6000803e3d6000fd5b505050506040513d601f19601f82011682018060405250810190610a169190610fc6565b5050509150506402540be40081610a2d9190611041565b92505050919050565b828054828255906000526020600020908101928215610aaf579160200282015b82811115610aae5782518260006101000a81548173ffffffffffffffffffffffffffffffffffffffff021916908373ffffffffffffffffffffffffffffffffffffffff16021790555091602001919060010190610a56565b5b509050610abc9190610ac0565b5090565b5b80821115610ad9576000816000905550600101610ac1565b5090565b600080fd5b600073ffffffffffffffffffffffffffffffffffffffff82169050919050565b6000610b0d82610ae2565b9050919050565b610b1d81610b02565b8114610b2857600080fd5b50565b600081359050610b3a81610b14565b92915050565b600060208284031215610b5657610b55610add565b5b6000610b6484828501610b2b565b91505092915050565b6000819050919050565b610b8081610b6d565b82525050565b6000602082019050610b9b6000830184610b77565b92915050565b610baa81610b02565b82525050565b6000602082019050610bc56000830184610ba1565b92915050565b6000819050919050565b6000610bf0610beb610be684610ae2565b610bcb565b610ae2565b9050919050565b6000610c0282610bd5565b9050919050565b6000610c1482610bf7565b9050919050565b610c2481610c09565b82525050565b6000602082019050610c3f6000830184610c1b565b92915050565b610c4e81610b6d565b8114610c5957600080fd5b50565b600081359050610c6b81610c45565b92915050565b600060208284031215610c8757610c86610add565b5b6000610c9584828501610c5c565b91505092915050565b600081519050610cad81610c45565b92915050565b600060208284031215610cc957610cc8610add565b5b6000610cd784828501610c9e565b91505092915050565b7f4e487b7100000000000000000000000000000000000000000000000000000000600052603260045260246000fd5b7f4e487b7100000000000000000000000000000000000000000000000000000000600052601160045260246000fd5b6000610d4982610b6d565b91507fffffffffffffffffffffffffffffffffffffffffffffffffffffffffffffffff8203610d7b57610d7a610d0f565b5b600182019050919050565b7f4e487b7100000000000000000000000000000000000000000000000000000000600052604160045260246000fd5b600081905092915050565b50565b6000610dd0600083610db5565b9150610ddb82610dc0565b600082019050919050565b6000610df182610dc3565b9150819050919050565b600082825260208201905092915050565b7f596f75206e65656420746f207370656e64206d6f726520455448210000000000600082015250565b6000610e42601b83610dfb565b9150610e4d82610e0c565b602082019050919050565b60006020820190508181036000830152610e7181610e35565b9050919050565b6000610e8382610b6d565b9150610e8e83610b6d565b9250828201905080821115610ea657610ea5610d0f565b5b92915050565b6000610eb782610b6d565b9150610ec283610b6d565b9250828202610ed081610b6d565b91508282048414831517610ee757610ee6610d0f565b5b5092915050565b7f4e487b7100000000000000000000000000000000000000000000000000000000600052601260045260246000fd5b6000610f2882610b6d565b9150610f3383610b6d565b925082610f4357610f42610eee565b5b828204905092915050565b600069ffffffffffffffffffff82169050919050565b610f6d81610f4e565b8114610f7857600080fd5b50565b600081519050610f8a81610f64565b92915050565b6000819050919050565b610fa381610f90565b8114610fae57600080fd5b50565b600081519050610fc081610f9a565b92915050565b600080600080600060a08688031215610fe257610fe1610add565b5b6000610ff088828901610f7b565b955050602061100188828901610fb1565b945050604061101288828901610c9e565b935050606061102388828901610c9e565b925050608061103488828901610f7b565b9150509295509295909350565b600061104c82610f90565b915061105783610f90565b925082820261106581610f90565b91507f8000000000000000000000000000000000000000000000000000000000000000841460008412161561109d5761109c610d0f565b5b82820584148315176110b2576110b1610d0f565b5b509291505056fea2646970667358221220d034e77580ea448c23d773765ef906c76488d4d198a449f05db729a9c587b7c164736f6c63430008110033",
  "devdoc": {
    "author": "rktbay",
    "details": "This implements price feeds as our library",
    "kind": "dev",
    "methods": {
      "getAddressToAmountFunded(address)": {
        "params": {
          "fundingAddress": "the address of the funder"
        },
        "returns": {
          "_0": "the amount funded"
        }
      }
    },
    "title": "A sample Funding Contract",
    "version": 1
  },
  "userdoc": {
    "kind": "user",
    "methods": {
      "fund()": {
        "notice": "Funds our contract based on the ETH/USD price"
      },
      "getAddressToAmountFunded(address)": {
        "notice": "Gets the amount that an address has funded"
      }
    },
    "notice": "This contract is for creating a sample funding contract",
    "version": 1
  },
  "storageLayout": {
    "storage": [
      {
        "astId": 67,
        "contract": "contracts/FundMe.sol:FundMe",
        "label": "s_funders",
        "offset": 0,
        "slot": "0",
        "type": "t_array(t_address)dyn_storage"
      },
      {
        "astId": 71,
        "contract": "contracts/FundMe.sol:FundMe",
        "label": "s_addressToAmountFunded",
        "offset": 0,
        "slot": "1",
        "type": "t_mapping(t_address,t_uint256)"
      },
      {
        "astId": 74,
        "contract": "contracts/FundMe.sol:FundMe",
        "label": "s_priceFeed",
        "offset": 0,
        "slot": "2",
        "type": "t_contract(AggregatorV3Interface)45"
      }
    ],
    "types": {
      "t_address": {
        "encoding": "inplace",
        "label": "address",
        "numberOfBytes": "20"
      },
      "t_array(t_address)dyn_storage": {
        "base": "t_address",
        "encoding": "dynamic_array",
        "label": "address[]",
        "numberOfBytes": "32"
      },
      "t_contract(AggregatorV3Interface)45": {
        "encoding": "inplace",
        "label": "contract AggregatorV3Interface",
        "numberOfBytes": "20"
      },
      "t_mapping(t_address,t_uint256)": {
        "encoding": "mapping",
        "key": "t_address",
        "label": "mapping(address => uint256)",
        "numberOfBytes": "32",
        "value": "t_uint256"
      },
      "t_uint256": {
        "encoding": "inplace",
        "label": "uint256",
        "numberOfBytes": "32"
      }
    }
  }
}